:020000020000FC
:040000000C940A0052
:100010000C94280040E244B930E037B990E042E067
:100020004093680042E040936C0078944FEF45B9EC
:1000300000000000903009F4FBCF4FED45B916D019
:100040009030A1F34FEF45B911D0903079F3F5CF4F
:100050003FB73F931F937F9316B1127011F471E075
:1000600097277F911F913F913FBF18957F936F9383
:100070008F937FEF6FEF82E57A95F1F77FEF6A95C7
:10008000D9F77FEF6FEF8A95B9F78F916F917F91D5
:020090000895D1
:00000001FF
